:03000000020F30BC
:0C0F300078FFE4F6D8FD758193020F777E
:0A1277000853000000000000000012
:1011D40000E4FEC2A2EF5480FDEF25E0FFED6004C1
:0C11E400D2A08002C2A0D2A20EBE08E77A
:0111F00022DC
:10123E00CCEDCCC2A1001211D400CFECCF1211D440
:04124E0000D2A12207
:1011B1007D077F0B12123E7DFF7F0912123E7D0AD1
:1011C1007F0A12123E7D017F0C12123E7D047F0ABE
:0311D10002123EC9
:10115E00E4FE7D80EDD394004017ED5F6004D291E4
:10116E008002C291D290000000C290EDC313FD80A8
:0C117E00E3D291D290A291E433C290FF22
:01118A002242
:10112E00E4FED2917D80EDD394004011D2903091A7
:10113E0004EDCE4ECEC290EDC313FD80E9EF24FF39
:0F114E00B39291D290000000C290D291CFEECF19
:01115D00226F
:10120C00D291C29000D29000C29100C29000000016
:09121C00D29000D29100C2902290
:10126600D291C290E4FFD290C2900FBF09F8021249
:011276000C6B
:060FBC008B248A25892622
:100FC200E4F52BF52C12120CE52A146007047018B4
:100FD2007F0380027F0512115EEF3395E0FEEF255D
:100FE2002CF52CEE352BF52B900000AF82AE83E46E
:100FF200FCFD7BFF7AFFF9F8D31204ED4006309135
:1010020003A380E7309108052CE52C7002052B7FA5
:101012000112112EAB24AA25A926EF1204567F0134
:1010220012112EAB24AA25A926900001EF12046802
:10103200E4FF12112EAB27AA28A929EF120456AFFA
:011042002C81
:01104300228A
:06096D008B248A25892677
:10097300E4F52DF52C752B80752AC075315475302F
:10098300E3752F25752E3D7535A27534E775333B19
:100993007532B675390A7538D775372375363C7590
:1009A3003DAC753CC5753BA7753A381205038F41BD
:1009B3008E408D3F8C3EAB27AA28A9291205038FB1
:1009C300458E448D438C427F0A7ED77D237C3CAB8E
:1009D30045AA44A943A84212011EE4FBFA792078F0
:1009E300C212002D8F518E508D4F8C4EAF41AE40B1
:1009F300AD3FAC3EAB35AA34A933A83212011EABCE
:100A030041AA40A93FA83E12011EECC0E0EDC0E0A0
:100A1300EEC0E0EFC0E0AF41AE40AD3FAC3EAB3126
:100A2300AA30A92FA82E12011ED0E0FBD0E0FAD0E5
:100A3300E0F9D0E0F812002DAB2DAA2CA92BA82A9F
:100A430012002D8F498E488D478C46AF41AE40AD85
:100A53003FAC3EAB3DAA3CA93BA83A12011EAB39C1
:100A6300AA38A937A83612002DECC0E0EDC0E0EE9D
:100A7300C0E0EFC0E0E4FFFE7DC87CC1AB51AA50EB
:100A8300A94FA84E12002DD0E0FBD0E0FAD0E0F938
:100A9300D0E0F812011EAB49AA48A947A8461200A4
:100AA3002D8F4D8E4C8D4B8C4AE4FFFE7DC87C42CE
:100AB300AB4DAA4CA94BA84A1202C4600D400BE4EB
:100AC300F54DF54C754BC8754A427FCD7ECC7DCC38
:100AD3007C3DAB4DAA4CA94BA84A1202C4500C75DD
:100AE3004DCD754CCC754BCC754A3DAF51AE50AD29
:100AF3004FAC4EAB27AA28A929120523AF4DAE4C04
:0D0B0300AD4BAC4AAB24AA25A92602052360
:100DC100120CBCE4FBFAF978C012002DECC0E0ED86
:100DD100C0E0EEC0E0EFC0E07FCD7E4C7D6D7C4396
:100DE100AB2BAA2AA929A82812002DECC0E0EDC03E
:100DF100E0EEC0E0EFC0E0E4FFFE7DF07C40AB2B15
:100E0100AA2AA929A82812011ED0E0FBD0E0FAD015
:100E1100E0F9D0E0F81202277B397A287929783F66
:100E210012002DD0E0FBD0E0FAD0E0F9D0E0F812CA
:100E3100002D8F2F8E2E8D2D8C2C7F397E287D2994
:100E41007CBFAB2FAA2EA92DA82C12002D7BCD7A09
:100E51004C796D784312011EECC0E0EDC0E0EEC0AC
:100E6100E0EFC0E0AB2FAA2EA92DA82C7F847E92A3
:100E71007D027C41120029C8ECC8C9EDC9CAEECA7D
:100E8100CBEFCBD0E0FFD0E0FED0E0FDD0E0FC1214
:020E9100022736
:010E9300223C
:03002300020E9436
:100E9400C0E0C0F0C083C082C0D0E8C0E0E9C0E0D8
:100EA400EAC0E0EBC0E0ECC0E0EDC0E0EEC0E0EF93
:100EB400C0E030992BC299E517C395165012051757
:100EC40074812517F8E6A2D0929BF599B2958039E2
:100ED400E4FF12122575150078927600D2958029C8
:100EE400309826C2987893760A74712515F8A699D5
:100EF40074712515F8E6A2D0309A01B350047892A3
:100F04007602051553150FC295D0E0FFD0E0FED050
:100F1400E0FDD0E0FCD0E0FBD0E0FAD0E0F9D0E096
:0C0F2400F8D0D0D082D083D0F0D0E032E2
:1010FB001211B1AD537F0112123EE5544480FD7FB6
:10110B000212123EAD557F0312123EAD567F0412F2
:10111B00123EE5574480FD7F0512123EAD587F0607
:03112B0002123E6F
:03000B000210449C
:10104400C0E0C0F0C0D0E8C0E0ECC0E0EDC0E0EE2D
:10105400C0E0EFC0E0758ACD758CF8E55E2401F53B
:101064005EE4355DF55DE4355CF55CE4355BF55BCC
:10107400D204787006E6C3940A40077600D20012C0
:1010840010FB7870E675F00384E5F0700375E135C4
:10109400D0E0FFD0E0FED0E0FDD0E0FCD0E0F8D01E
:0610A400D0D0F0D0E032D4
:03000300020006F2
:0100060032C7
:03001B00020007D9
:0100070032C6
:1007A500C205C201C203C2A9855E6F855D6E855C07
:1007B5006D855B6CD2A9300422C204D2057893E61C
:1007C500D39400401616E67012E515D39400400B3D
:1007D500E4FF121225E4F5157892F6300204C20200
:1007E500D20320000302096CC200D2010552E55272
:1007F500C394C8500302096CB294E4F552F563F54D
:1008050064F567F568F522F52775280075292375C0
:100815002A01FB7A007963120FBCEF2522F52275B8
:100825002700752800752923E4F52AFB7A007967E6
:10083500120FBCEF2522F522601D12126675669A0D
:100845007565F9756479756344756A9A7569F9759D
:1008550068797567448055AC63AD64E41203368FDF
:10086500668E658D648C63AC67AD68E41203368F64
:100875006A8E698D688C67752700752800752967EC
:100885007B007A00796312096DAF6AAE69AD68AC19
:10089500678F2B8E2A8D298C28AF66AE65AD64AC2B
:1008A50063120DC18F628E618D608C5FE4FFFE7DEA
:1008B500207C41AB6AAA69A968A86712011E1203C8
:1008C5006FCBEFCBCAEECA7C037DE812048A7E00AB
:1008D5007F64CFCDCFCECCCE12048A8F537C007DE2
:1008E50064CFEBCFCEEACE12048A7E007F0ACFCD4D
:1008F500CFCECCCE12048A8F547C007D0ACFEBCFAD
:10090500CEEACE12048A8D55E4FFFE7D207C41ABF4
:1009150066AA65A964A86312011E12036FCAEECA0E
:10092500CBEFCB7C037DE812048A7E007F64CFCDBC
:10093500CFCECCCE12048A8F567C007D64CFEBCF10
:10094500CEEACE12048A7E007F0ACFCDCFCECCCEA2
:1009550012048A8F57CEEACECFEBCF7C007D0A12E8
:07096500048A8D581210FBFB
:01096C002268
:1012520075C83075CBFF75CAB8D2CA7598D0E4F597
:0412620087D2AC2261
:10118B00758951758CF8758ACDD28CD2A9E4F58D01
:10119B00F58BC28ED2ABD288D28AC2A8D2B8C2AAE1
:0611AB00121252D2AF2225
:0B000E0012118BE4FF12122502126693
:100B100012000E1211B175E135C2A3C2A4C2A5C262
:100B200094C293E4F52174812521F8E4F60521E5CA
:100B300021B410F2E4F515D295F566F565F564F586
:100B400063F56AF569F568F567FF121225E4789197
:100B5000F6756B281207A5E515B402F87871E665FD
:100B60006B6003020C837892E66003020C83787258
:100B7000E6146003020C83E4F52174812521F8E476
:100B8000F60521E521B410F2E47881F608A66B0899
:100B90007601A2933308F6E4FFFE7D207C41AB662C
:100BA000AA65A964A86312011E12036FCBEFCBCA1A
:100BB000EECA7C037DE812048A7885EFF67C037D1B
:100BC000E8CFEBCFCEEACE12048A7E007F64CFCD91
:100BD000CFCECCCE12048A7886EFF67C007D64CF2F
:100BE000EBCFCEEACE12048A7E007F0ACFCDCFCEE5
:100BF000CCCE12048A7887EFF67C007D0ACFEBCF4B
:100C0000CEEACE12048A7888EDF6E4FFFE7D207CE1
:100C100041AB6AAA69A968A86712011E12036FCACC
:100C2000EECACBEFCB7C037DE812048A7889EFF61D
:100C30007C037DE8CFEBCFCEEACE12048A7E007F24
:100C400064CFCDCFCECCCE12048A788AEFF67C006A
:100C50007D64CFEBCFCEEACE12048A7E007F0ACF2E
:100C6000CDCFCECCCE12048A788BEFF6CEEACECFA3
:100C7000EBCF7C007D0A12048A788CEDF675160C99
:0C0C80001211F1E4F5157892F6020B5405
:1005A50000C1814001C0804101C0804100C181403E
:1005B50001C0804100C1814000C1814001C080412E
:1005C50001C0804100C1814000C1814001C080411E
:1005D50000C1814001C0804101C0804100C181400E
:1005E50001C0804100C1814000C1814001C08041FE
:1005F50000C1814001C0804101C0804100C18140EE
:1006050000C1814001C0804101C0804100C18140DD
:1006150001C0804100C1814000C1814001C08041CD
:1006250001C0804100C1814000C1814001C08041BD
:1006350000C1814001C0804101C0804100C18140AD
:1006450000C1814001C0804101C0804100C181409D
:1006550001C0804100C1814000C1814001C080418D
:1006650000C1814001C0804101C0804100C181407D
:1006750001C0804100C1814000C1814001C080416D
:1006850001C0804100C1814000C1814001C080415D
:1006950000C1814001C0804101C0804100C181404D
:1006A50000C0C101C30302C2C60607C705C5C4040D
:1006B500CC0C0DCD0FCFCE0E0ACACB0BC90908C87D
:1006C500D81819D91BDBDA1A1EDEDF1FDD1D1CDC6D
:1006D50014D4D515D71716D6D21213D311D1D010DD
:1006E500F03031F133F3F23236F6F737F53534F4CD
:1006F5003CFCFD3DFF3F3EFEFA3A3BFB39F9F8383D
:1007050028E8E929EB2B2AEAEE2E2FEF2DEDEC2C2C
:10071500E42425E527E7E62622E2E323E12120E09C
:10072500A06061A163A3A26266A6A767A56564A48C
:100735006CACAD6DAF6F6EAEAA6A6BAB69A9A868FC
:1007450078B8B979BB7B7ABABE7E7FBF7DBDBC7CEC
:10075500B47475B577B7B67672B2B373B17170B05C
:10076500509091519353529296565797559594544C
:100775009C5C5D9D5F9F9E5E5A9A9B5B99595898BC
:10078500884849894B8B8A4A4E8E8F4F8D4D4C8CAC
:10079500448485458747468682424383418180401C
:0312810001120156
:0A10AA008B088A09890A8C0B8D0C53
:1010B4007FFF750DFFE50C150CAC0B7002150B4C86
:1010C400602FAB08050AE50AAA097002050914F99C
:1010D40012043D6FFFE48F11F510F50FF50EAE11FC
:1010E400EE9005A593650DFFEE9006A593F50D8092
:0610F400C4EFFEE50DFF54
:0110FA0022D3
:10122500EF6004C2928002D2927F887E13EF1FCCBA
:08123500EECC70011E4C70F5B7
:01123D00228E
:1011F1007F01121225E4F517E516D394014002157B
:0B120100167881E6A2D0929BF599229E
:100026000203DBE86480F8E933E83360110460F02A
:10003600ED33EC337009E8FCE9FDEAFEEBFF220440
:1000460060DED3EB9FEA9EE99DE8C2E78CF0C2F73B
:1000560095F0400CE8CCF8E9CDF9EACEFAEBCFFB07
:100066001203A685D0F05804700320D5B3E80470B7
:10007600075002B2D50203E592D5EC0460F7E4CC52
:10008600C0E0C398F8603B94186008400DD0E0FBD0
:100096000203BDE4FBFAC9FC8028E830E406E4C9A3
:1000A600FBE4CAFCE830E305E4C9CACBFCE8540724
:1000B6006010F8C3E913F9EA13FAEB13FBEC13FC2F
:1000C600D8F130F52FC3E49CFCEF9BFFEE9AFEEDD2
:1000D60099FDD0E0FBEF4E4D4C701222DB0302037C
:1000E600E2EC2CFCEF33FFEE33FEED33FDED30E7B3
:1000F600EB0203BDEF2BFFEE3AFEED39FDD0E0FB40
:1001060050130BBB00030203E5ED13FDEE13FEEFE8
:0801160013FFEC13FC0203BD12
:10011E00EC4D6011E8497017ED33EC3304600DE4DB
:10012E00FCFFFEFD22E933E8330470F80203DB1214
:10013E0003A658046009E4CC248150062850090215
:10014E0003E52840030203E2C0E0EB4A7044B980A5
:10015E0006D0E0FB0203D1EF4E701CBD8008EBFF12
:10016E00EAFEE9FD80EBE98DF0A4FEE5F002020760
:10017E00E9CDF9EAFEEBFFEF89F0A4FCE5F0CE89BC
:10018E00F0A42EFFE435F0CD89F0A42DFEE435F079
:10019E008067EF4E7005BD80D780C3EF8BF0A4ACA7
:1001AE00F0EE8BF0A42CFCE435F0F8EF8AF0A42CE2
:1001BE00E5F038FCE433CB8DF0A42CFCE5F03BF8F5
:1001CE00EE8AF0A42CFCE5F038F8E433CF89F0A4E5
:1001DE002CFCE5F038CF3400CE89F0A42FFFE5F0EB
:1001EE003EFEE433C98DF0A42EFEE5F039CD8AF043
:1001FE00A42FFFE5F03EFEE43DFD33D0E0FB5007BB
:10020E000BBB000F0203E5EC2CFCEF33FFEE33FECD
:06021E00ED33FD0203BDFB
:100224000203E5EC5D046005E8590470030203DB96
:100234001203A6580460F6EC4860F2EC7004FDFE6C
:10024400FF22C860DB2481C85009C39860025006AD
:100254000203E29850CAF582E9294B4A7005AB8241
:100264000203D175F0007C1A7880C3EF9BEE9AEDFF
:1002740099400DC3EF9BFFEE9AFEED99FDE842F025
:10028400DC23ACF0D0E0FFD0E0FED0E0FDAB822078
:10029400E7101BEB60BAEC2CFCEF33FFEE33FEED02
:1002A40033FD0203BDE803F830E705C0F075F00044
:1002B400EF2FFFEE33FEED33FD40B830E7C280AAE6
:1002C40074F8CC6480CCC86480C8F582046043C3ED
:1002D400EB9FF5F0EA9E42F0E99D42F0E89C45F080
:1002E40060305018E5825FFFE582F42B5582FB50A5
:1002F400210ABA001D09B90019088016E5825BFBC2
:10030400E582F42F5582FF50090EBE00050DBD0095
:10031400010CC3EB9FF5F0EA9E42F0E99D42F0E840
:0D0324009C45F06007CC4820E701B3EC22B7
:1003310075F020800E75F010800575F0087D007E47
:10034100007F003392D530D5031204DFEC33401027
:10035100EF33FFEE33FEED33FDEC33FCD5F0ED2250
:0E036100E5F0247EA2D513CC92E7CDCEFF228C
:10036F00EDD2E7CD33EC3392D524814006E4FFFE86
:10037F00FDFC22FCE4CFCECDCC24E0501174FF80E5
:10038F00EDC3CC13CCCD13CDCE13CECF13CF047082
:07039F00F030D5DE0204DF9F
:100C8C003E9248DA3ECCCCCD3F2AAAAB40000000C5
:100C9C003F8000003F9837F03FB504F33FD744FC4A
:100CAC003E3172173EB172173F0515913EDE5BD98E
:100CBC00D2068002C206EDD2E7F8CD33EC330470D5
:100CCC000BBD800592D50203E50203DB40FBD31478
:100CDC0060F2F5F07C3FEE7A00C39496C8948B409A
:100CEC00230AC89469C8941A401A0AC89468C8940C
:100CFC001F40110AC8945AC89425400805F07A0080
:100D0C00CDC2E7CDC0F08C308D318E328F33EA23DB
:100D1C0023C0E0249CF582E4340CF58312054D12BB
:100D2C00002DECC0E0EDC0E0EEC0E0EFC0E012053D
:100D3C003DA830A931AA32AB33120029D0E0FBD048
:100D4C00E0FAD0E0F9D0E0B2E7F81202278C308D4F
:100D5C00318E328F33900C8C74031203F0A830A9AF
:100D6C0031AA32AB3312011ED0E0600F24A8F582F9
:100D7C00E4340CF58312054D12002D8C308D318E20
:100D8C00328F33D0E0C3947FFDE49400FC12033621
:100D9C007B187A727931783F12011EA830A931AADA
:100DAC0032AB3312002D30060B7BD97A5B79DE78AF
:050DBC003E12011E22A1
:1003A600E9D2E7C933E833F892D5EDD2E7CD33EC9D
:0703B60033FC5002B2D52216
:1003BD00EC30E7100FBF000C0EBE00080DBD0004A1
:1003CD000BEB6014A2D5EB13FCED92E7FD2274FF4D
:1003DD00FCFDFEFF22E480F8A2D574FF13FC7D80A6
:0303ED00E480EFBA
:1003F000C0E0EFFBEEFAEDF9ECF812011ED0E0F5EB
:10040000F0EFFBEEFAEDF9ECF812053DA3A3A3A380
:10041000E8C0E0E9C0E0EAC0E0EBC0E0C0F01201F3
:100420001E12054DA3A3A3A312002DD0F0D0E0FB14
:0D043000D0E0FAD0E0F9D0E0F8D5F0D42209
:100F3C00020B10E493A3F8E493A34003F68001F2B0
:100F4C0008DFF48029E493A3F85407240CC8C333B6
:100F5C00C4540F4420C8834004F456800146F6DF85
:100F6C00E4800B0102040810204080901277E47E8C
:100F7C00019360BCA3FF543F30E509541FFEE4937A
:100F8C00A360010ECF54C025E060A840B8E493A341
:100F9C00FAE493A3F8E493A3C8C582C8CAC583CA6C
:100FAC00F0A3C8C582C8CAC583CADFE9DEE780BE24
:011284000069
:10043D00BB010689828A83E0225002E722BBFE02BD
:09044D00E32289828A83E49322F0
:10045600BB010689828A83F0225002F722BBFE0185
:02046600F3227F
:10046800F8BB010DE58229F582E5833AF583E8F0CA
:10047800225006E92582C8F622BBFE05E92582C876
:02048800F2225E
:10048A00BC000BBE0029EF8DF084FFADF022E4CC56
:10049A00F875F008EF2FFFEE33FEEC33FCEE9DEC1F
:1004AA00984005FCEE9DFE0FD5F0E9E4CEFD22ED65
:1004BA00F8F5F0EE8420D21CFEADF075F008EF2FAF
:1004CA00FFED33FD4007985006D5F0F222C398FDA0
:0504DA000FD5F0EA223D
:0E04DF00C3E49FFFE49EFEE49DFDE49CFC222E
:1004ED00EB9FF5F0EA9E42F0E99D42F0EC6480C886
:0604FD0064809845F02226
:10050300BB010789828A830205695005E9F8020560
:100513005DBBFE05E9F802057589828A8302053D04
:10052300BB010789828A8302058D5005E9F802051C
:0A05330081BBFE05E9F802059922DC
:10053D00E493FC740193FD740293FE740393FF2204
:10054D00E493F8740193F9740293FA740393FB2204
:0C055D00E6FC08E6FD08E6FE08E6FF22CA
:0C056900E0FCA3E0FDA3E0FEA3E0FF2205
:0C057500E2FC08E2FD08E2FE08E2FF22C2
:0C058100ECF608EDF608EEF608EFF622A6
:0C058D00ECF0A3EDF0A3EEF0A3EFF022E1
:0C059900ECF208EDF208EEF208EFF2229E
:00000001FF
