:0300000002079163
:0C07910078FFE4F6D8FD7581940207D8CB
:07000E000210282901130272
:030023000206FBD7
:1006FB00C0E0C0F0C083C082C0D0E8C0E0E9C0E079
:10070B00EAC0E0EBC0E0ECC0E0EDC0E0EEC0E0EF33
:10071B00C0E0309927C299E551C39550501005514F
:10072B0074832551F8E6A2D0929BF5998035E4FFAE
:10073B00120A2D754F00789376008027309824C2CB
:10074B00987894760A7473254FF8A6997473254F8D
:10075B00F8E6A2D0309A01B3500478937602054F95
:10076B00534F0FD0E0FFD0E0FED0E0FDD0E0FCD047
:10077B00E0FBD0E0FAD0E0F9D0E0F8D0D0D082D0D6
:06078B0083D0F0D0E03243
:03000B0002096285
:10096200C0E0C0F0C0D0E8C0E0758ACD758CF8E573
:100972000E2401F50EE4350DF50DE4350CF50CE40D
:10098200350BF50BD204787206E6C3940A4004765E
:1009920000D2007872E675F00384E5F0700375E129
:0B09A20035D0E0F8D0D0D0F0D0E0322B
:03000300020019DF
:0100190032B4
:03001B0002001AC6
:01001A0032B3
:040226008F218B2376
:10022A00752800752900752A24752B00752C007510
:10023A002D26E5215407FFED700874622FF8E4F6C5
:10024A00801474622FF80674622FF8E6C394035080
:10025A00030203ECE4F6EFB408004003020306903D
:10026A000270F82828730202F80202880202980231
:10027A0002A80202B80202C80202D80202E8E52372
:10028A00B40106ED7003C38001D392A0806EE5230A
:10029A00B40106ED7003C38001D392A1805EE52309
:1002AA00B40106ED7003C38001D392A2804EE52308
:1002BA00B40106ED7003C38001D392A3803EE52307
:1002CA00B40106ED7003C38001D392A4802EE52306
:1002DA00B40106ED7003C38001D392A5801EE52305
:1002EA00B40106ED7003C38001D392A6800EE52304
:1002FA00B40106ED7003C38001D392A7750901D238
:10030A00957883764108764208764308A62108ED57
:10031A00F608A623AE24AF257C037DE8120687786B
:10032A0089EFF6AE24AF257C037DE81206877E00AE
:10033A007F64CFCDCFCECCCE120687788AEFF6AEC9
:10034A0024AF257C007D641206877E007F0ACFCD0C
:10035A00CFCECCCE120687788BEFF6AE24AF257CB3
:10036A00007D0A120687788CEDF6AE26AF277C034D
:10037A007DE8120687788DEFF6AE26AF277C037DDF
:10038A00E81206877E007F64CFCDCFCECCCE120690
:10039A0087788EEFF6AE26AF277C007D641206873B
:1003AA007E007F0ACFCDCFCECCCE120687788FEFD4
:1003BA00F6AE26AF277C007D0A1206877890EDF606
:1003CA00087644087645C2ACE4FF74832FF8E6A2A7
:1003DA00D0929BF5993099FDC2990FBF10ECD2AC1F
:0203EA00C295BA
:0103EC0022EE
:100A4600E4F509C29575C83075CBFF75CAB8D2CA28
:080A56007598D0F587D2AC229F
:1004E100C205C201C203C2A9850E17850D16850C6E
:1004F10015850B14D2A9300422C204D2057894E6E2
:10050100D39400401616E67012E54FD39400400BC9
:10051100E4FF120A2DE4F54F7893F6300204C2028B
:10052100D20330007CC200D2010508E508C394C89B
:100531004005B291E4F508E508540770642095611F
:10054100E50F602AE5127026050AE50AC394084002
:1005510026740F250FF8E6FFE4F524F525F526F5B9
:1005610027FB7D01120226751201050F8006E50F9A
:100571006002050FE4F50AE50F7003750F01E50F41
:10058100D395134003750F01740F250FF8E6788397
:10059100F6087601C295E4F509F512755002120AC2
:0105A1001247
:0105A2002236
:1009EC00758951758CF8758ACDD28CD2A9E4F58DA8
:1009FC00F58BC28ED2ABD288D28AC2A8D2B8C2AA88
:060A0C00120A46D2AF22DF
:080AAD001209ECE4FF020A2D1E
:1003ED00120AADD2A0D2A1D2A2D2A3D2A4D2A5D2AA
:1003FD00A6D2A77F107862E4F608DFFC75E135C25E
:10040D00917F107883E4F608DFFCE4F54FFF120AC4
:10041D002DE4F50FF512F509C295F50A1204E1E583
:10042D004FB40CF87873E660030204D87893E66055
:10043D00030204D8E50F70030204D8240FF8E6F97F
:10044D0078746660030204D875120108E614707B97
:10045D007877E6FF7E007C037DE8120675CCEECC46
:10046D00CDEFCD7878E675F064A42DFDEC35F0FC7C
:10047D0008E675F00AA42DFFE5F03CFE08E67C00C9
:10048D002FFBEC3EFA08E6FF7E007C037DE81206AA
:10049D0075CCEECCCDEFCD787CE675F064A42DFD5A
:1004AD00EC35F0FC08E675F00AA42DFFE5F03CFEF6
:1004BD0008E67C002FF527EC3EF5268A248B25CF08
:1004CD00E9CF7876E6FBE4FD120226E4F54F78934A
:0404DD00F6020429F6
:1000260000C1814001C0804101C0804100C18140C2
:1000360001C0804100C1814000C1814001C08041B2
:1000460001C0804100C1814000C1814001C08041A2
:1000560000C1814001C0804101C0804100C1814092
:1000660001C0804100C1814000C1814001C0804182
:1000760000C1814001C0804101C0804100C1814072
:1000860000C1814001C0804101C0804100C1814062
:1000960001C0804100C1814000C1814001C0804152
:1000A60001C0804100C1814000C1814001C0804142
:1000B60000C1814001C0804101C0804100C1814032
:1000C60000C1814001C0804101C0804100C1814022
:1000D60001C0804100C1814000C1814001C0804112
:1000E60000C1814001C0804101C0804100C1814002
:1000F60001C0804100C1814000C1814001C08041F2
:1001060001C0804100C1814000C1814001C08041E1
:1001160000C1814001C0804101C0804100C18140D1
:1001260000C0C101C30302C2C60607C705C5C40491
:10013600CC0C0DCD0FCFCE0E0ACACB0BC90908C801
:10014600D81819D91BDBDA1A1EDEDF1FDD1D1CDCF1
:1001560014D4D515D71716D6D21213D311D1D01061
:10016600F03031F133F3F23236F6F737F53534F451
:100176003CFCFD3DFF3F3EFEFA3A3BFB39F9F838C1
:1001860028E8E929EB2B2AEAEE2E2FEF2DEDEC2CB1
:10019600E42425E527E7E62622E2E323E12120E021
:1001A600A06061A163A3A26266A6A767A56564A411
:1001B6006CACAD6DAF6F6EAEAA6A6BAB69A9A86881
:1001C60078B8B979BB7B7ABABE7E7FBF7DBDBC7C71
:1001D600B47475B577B7B67672B2B373B17170B0E1
:1001E60050909151935352929656579755959454D1
:1001F6009C5C5D9D5F9F9E5E5A9A9B5B9959589841
:10020600884849894B8B8A4A4E8E8F4F8D4D4C8C30
:1002160044848545874746868242438341818040A0
:03001500014C019A
:09090800FD7B007A0079837C007C
:0A0911008B398A3A893B8C3C8D3DFE
:10091B007FFF753EFFE53D153DAC3C7002153C4C31
:10092B00602FAB39053BE53BAA3A7002053A14F947
:10093B0012065C6FFFE48F42F541F540F53FAE4286
:10094B00EE90002693653EFFEE90012693F53E80D8
:06095B00C4EFFEE53EFFC3
:010961002273
:100A2D00EF6004C2928002D2927F887E13EF1FCCBA
:080A3D00EECC70011E4C70F5B7
:010A4500228E
:100A12007F01120A2DE4F551E550D39401400215ED
:0B0A2200507883E6A2D0929BF5992249
:1005A300E4F5387876E6F52EF52F7878E6F531130D
:1005B3001313541FF530E531540760020530E4F599
:1005C30034E534C395305063E5342403F532248392
:1005D300F8E4F6F533AF2F7E007B007A007936120C
:1005E3000A7574832532F8C9E8C9E537AE36A833EE
:1005F300088005C333CE33CED8F947F7052FE52E50
:100603002531FFE433FEC3E52F9FEE6480F8748049
:1006130098400575380180090533E533C3940840D4
:10062300B4E53864016004053480967883A64C08E9
:10063300760108A63074032530F530120908CCEE94
:10064300CC74832530F8ECF6053074832530F8EF4D
:09065300F6E53004F550020A122C
:10081D00E4F54AF54B7876E6F5437878E625E0F58C
:10082D0046E4F548F549C3E5499546E54894005039
:10083D002EAF437E007B007A00794A120A5EE54AAC
:10084D00FFAE4974862EF8EFF674872EF8E54BF659
:10085D0074022549F549E43548F548054380C778C4
:10086D0083A64C08760308A64674032546F5461262
:10087D000908CCEECC74832546F8ECF60546748356
:0D088D002546F8EFF6E54604F550020A1284
:1009AD007876E6FF08E6FEBEFF087558007559011A
:1009BD008007EE7004F558F5597E00AD59AC58120C
:1009CD000A9DE4FFEFC3954F500F74732FF8E6FEA9
:0F09DD0074832FF8EEF60F80EB854F50020A124D
:10089A007876E6F518F5197878E6F51B08E6F51A7C
:1008AA00E4F51FE51FC3951B502BE51F25E0247AAD
:1008BA00F8E6FEE51F25E0247BF8E67C002400F537
:1008CA001DEC3EF51CAF197E00AD1DFC120A8A050F
:1008DA001F051980CE7883A64C08761008E4F6E541
:1008EA001808F608E4F6E51B08F67D06120909CC95
:0E08FA00EECC08ECF6EF08F6755008020A1274
:05000600E54F6410222B
:100A7500E4F55AF55BEF147007E48552F01206DCD5
:040A8500AE5AAF5B5B
:010A8900224A
:0F0A9D00E4F55CF55DEF1470028D52AE5CAF5D59
:010AAC002227
:100A5E00E4F55EF55FEF24F07008E54D854EF0127B
:060A6E0006DCAE5EAF5F86
:010A7400225F
:100A8A00E4F560F561EF24F070048C4D8D4EAE6094
:020A9A00AF614A
:010A9C002237
:10079D000203EDE493A3F8E493A34003F68001F282
:1007AD0008DFF48029E493A3F85407240CC8C3335D
:1007BD00C4540F4420C8834004F456800146F6DF2C
:1007CD00E4800B010204081020408090000EE47EAE
:1007DD00019360BCA3FF543F30E509541FFEE49321
:1007ED00A360010ECF54C025E060A840B8E493A3E8
:1007FD00FAE493A3F8E493A3C8C582C8CAC583CA13
:10080D00F0A3C8C582C8CAC583CADFE9DEE780BECA
:0100180000E7
:10065C00BB010689828A83E0225002E722BBFE029C
:09066C00E32289828A83E49322CF
:10067500EF8DF0A4A8F0CF8CF0A428CE8DF0A42E99
:02068500FE2253
:10068700BC000BBE0029EF8DF084FFADF022E4CC57
:10069700F875F008EF2FFFEE33FEEC33FCEE9DEC20
:1006A700984005FCEE9DFE0FD5F0E9E4CEFD22ED66
:1006B700F8F5F0EE8420D21CFEADF075F008EF2FB0
:1006C700FFED33FD4007985006D5F0F222C398FDA1
:0506D7000FD5F0EA223E
:1006DC00BB010A89828A83F0E5F0A3F0225006F769
:0F06EC0009A7F01922BBFE06F3E5F009F3192266
:00000001FF
